{
	"data": {
		"bytecode": {
			"linkReferences": {},
			"object": "60806040526040518060400160405280600781526020017f61736966446578000000000000000000000000000000000000000000000000008152505f90816100479190610388565b506040518060400160405280600381526020017f61736400000000000000000000000000000000000000000000000000000000008152506001908161008c9190610388565b50601260025f6101000a81548160ff021916908360ff1602179055503480156100b3575f80fd5b50604051610ebb380380610ebb83398181016040528101906100d59190610485565b60025f9054906101000a900460ff1660ff16600a6100f3919061060c565b816100fe9190610656565b60038190555060035460045f3373ffffffffffffffffffffffffffffffffffffffff1673ffffffffffffffffffffffffffffffffffffffff1681526020019081526020015f208190555050610697565b5f81519050919050565b7f4e487b71000000000000000000000000000000000000000000000000000000005f52604160045260245ffd5b7f4e487b71000000000000000000000000000000000000000000000000000000005f52602260045260245ffd5b5f60028204905060018216806101c957607f821691505b6020821081036101dc576101db610185565b5b50919050565b5f819050815f5260205f209050919050565b5f6020601f8301049050919050565b5f82821b905092915050565b5f6008830261023e7fffffffffffffffffffffffffffffffffffffffffffffffffffffffffffffffff82610203565b6102488683610203565b95508019841693508086168417925050509392505050565b5f819050919050565b5f819050919050565b5f61028c61028761028284610260565b610269565b610260565b9050919050565b5f819050919050565b6102a583610272565b6102b96102b182610293565b84845461020f565b825550505050565b5f90565b6102cd6102c1565b6102d881848461029c565b505050565b5b818110156102fb576102f05f826102c5565b6001810190506102de565b5050565b601f82111561034057610311816101e2565b61031a846101f4565b81016020851015610329578190505b61033d610335856101f4565b8301826102dd565b50505b505050565b5f82821c905092915050565b5f6103605f1984600802610345565b1980831691505092915050565b5f6103788383610351565b9150826002028217905092915050565b6103918261014e565b67ffffffffffffffff8111156103aa576103a9610158565b5b6103b482546101b2565b6103bf8282856102ff565b5f60209050601f8311600181146103f0575f84156103de578287015190505b6103e8858261036d565b86555061044f565b601f1984166103fe866101e2565b5f5b8281101561042557848901518255600182019150602085019450602081019050610400565b86831015610442578489015161043e601f891682610351565b8355505b6001600288020188555050505b505050505050565b5f80fd5b61046481610260565b811461046e575f80fd5b50565b5f8151905061047f8161045b565b92915050565b5f6020828403121561049a57610499610457565b5b5f6104a784828501610471565b91505092915050565b7f4e487b71000000000000000000000000000000000000000000000000000000005f52601160045260245ffd5b5f8160011c9050919050565b5f808291508390505b60018511156105325780860481111561050e5761050d6104b0565b5b600185161561051d5780820291505b808102905061052b856104dd565b94506104f2565b94509492505050565b5f8261054a5760019050610605565b81610557575f9050610605565b816001811461056d5760028114610577576105a6565b6001915050610605565b60ff841115610589576105886104b0565b5b8360020a9150848211156105a05761059f6104b0565b5b50610605565b5060208310610133831016604e8410600b84101617156105db5782820a9050838111156105d6576105d56104b0565b5b610605565b6105e884848460016104e9565b925090508184048111156105ff576105fe6104b0565b5b81810290505b9392505050565b5f61061682610260565b915061062183610260565b925061064e7fffffffffffffffffffffffffffffffffffffffffffffffffffffffffffffffff848461053b565b905092915050565b5f61066082610260565b915061066b83610260565b925082820261067981610260565b915082820484148315176106905761068f6104b0565b5b5092915050565b610817806106a45f395ff3fe608060405234801561000f575f80fd5b5060043610610060575f3560e01c806306fdde031461006457806318160ddd1461008257806323b872dd146100a0578063313ce567146100d057806375247a58146100ee57806395d89b411461011e575b5f80fd5b61006c61013c565b6040516100799190610556565b60405180910390f35b61008a6101cb565b604051610097919061058e565b60405180910390f35b6100ba60048036038101906100b5919061062f565b6101d1565b6040516100c79190610699565b60405180910390f35b6100d8610354565b6040516100e591906106cd565b60405180910390f35b610108600480360381019061010391906106e6565b610369565b6040516101159190610699565b60405180910390f35b610126610456565b6040516101339190610556565b60405180910390f35b60605f805461014a90610751565b80601f016020809104026020016040519081016040528092919081815260200182805461017690610751565b80156101c15780601f10610198576101008083540402835291602001916101c1565b820191905f5260205f20905b8154815290600101906020018083116101a457829003601f168201915b5050505050905090565b60035481565b5f60055f8573ffffffffffffffffffffffffffffffffffffffff1673ffffffffffffffffffffffffffffffffffffffff1681526020019081526020015f205f3373ffffffffffffffffffffffffffffffffffffffff1673ffffffffffffffffffffffffffffffffffffffff1681526020019081526020015f2054821115610256575f80fd5b8160055f8673ffffffffffffffffffffffffffffffffffffffff1673ffffffffffffffffffffffffffffffffffffffff1681526020019081526020015f205f3373ffffffffffffffffffffffffffffffffffffffff1673ffffffffffffffffffffffffffffffffffffffff1681526020019081526020015f205f8282546102dd91906107ae565b925050819055508273ffffffffffffffffffffffffffffffffffffffff168473ffffffffffffffffffffffffffffffffffffffff167fbeabacc8ffedac16e9a60acdb2ca743d80c2ebb44977a93fa8e483c74d2b35a884604051610341919061058e565b60405180910390a3600190509392505050565b5f60025f9054906101000a900460ff16905090565b5f8160055f3373ffffffffffffffffffffffffffffffffffffffff1673ffffffffffffffffffffffffffffffffffffffff1681526020019081526020015f205f8573ffffffffffffffffffffffffffffffffffffffff1673ffffffffffffffffffffffffffffffffffffffff1681526020019081526020015f20819055508273ffffffffffffffffffffffffffffffffffffffff163373ffffffffffffffffffffffffffffffffffffffff167f8c5be1e5ebec7d5bd14f71427d1e84f3dd0314c0f7b2291e5b200ac8c7c3b92584604051610444919061058e565b60405180910390a36001905092915050565b60606001805461046590610751565b80601f016020809104026020016040519081016040528092919081815260200182805461049190610751565b80156104dc5780601f106104b3576101008083540402835291602001916104dc565b820191905f5260205f20905b8154815290600101906020018083116104bf57829003601f168201915b5050505050905090565b5f81519050919050565b5f82825260208201905092915050565b8281835e5f83830152505050565b5f601f19601f8301169050919050565b5f610528826104e6565b61053281856104f0565b9350610542818560208601610500565b61054b8161050e565b840191505092915050565b5f6020820190508181035f83015261056e818461051e565b905092915050565b5f819050919050565b61058881610576565b82525050565b5f6020820190506105a15f83018461057f565b92915050565b5f80fd5b5f73ffffffffffffffffffffffffffffffffffffffff82169050919050565b5f6105d4826105ab565b9050919050565b6105e4816105ca565b81146105ee575f80fd5b50565b5f813590506105ff816105db565b92915050565b61060e81610576565b8114610618575f80fd5b50565b5f8135905061062981610605565b92915050565b5f805f60608486031215610646576106456105a7565b5b5f610653868287016105f1565b9350506020610664868287016105f1565b92505060406106758682870161061b565b9150509250925092565b5f8115159050919050565b6106938161067f565b82525050565b5f6020820190506106ac5f83018461068a565b92915050565b5f60ff82169050919050565b6106c7816106b2565b82525050565b5f6020820190506106e05f8301846106be565b92915050565b5f80604083850312156106fc576106fb6105a7565b5b5f610709858286016105f1565b925050602061071a8582860161061b565b9150509250929050565b7f4e487b71000000000000000000000000000000000000000000000000000000005f52602260045260245ffd5b5f600282049050600182168061076857607f821691505b60208210810361077b5761077a610724565b5b50919050565b7f4e487b71000000000000000000000000000000000000000000000000000000005f52601160045260245ffd5b5f6107b882610576565b91506107c383610576565b92508282039050818111156107db576107da610781565b5b9291505056fea2646970667358221220314d1869fe72f918f55a248858b948a3789d3a30126a3c5b231c6ffd640b9c0e64736f6c634300081a0033",
			"opcodes": "PUSH1 0x80 PUSH1 0x40 MSTORE PUSH1 0x40 MLOAD DUP1 PUSH1 0x40 ADD PUSH1 0x40 MSTORE DUP1 PUSH1 0x7 DUP2 MSTORE PUSH1 0x20 ADD PUSH32 0x6173696644657800000000000000000000000000000000000000000000000000 DUP2 MSTORE POP PUSH0 SWAP1 DUP2 PUSH2 0x47 SWAP2 SWAP1 PUSH2 0x388 JUMP JUMPDEST POP PUSH1 0x40 MLOAD DUP1 PUSH1 0x40 ADD PUSH1 0x40 MSTORE DUP1 PUSH1 0x3 DUP2 MSTORE PUSH1 0x20 ADD PUSH32 0x6173640000000000000000000000000000000000000000000000000000000000 DUP2 MSTORE POP PUSH1 0x1 SWAP1 DUP2 PUSH2 0x8C SWAP2 SWAP1 PUSH2 0x388 JUMP JUMPDEST POP PUSH1 0x12 PUSH1 0x2 PUSH0 PUSH2 0x100 EXP DUP2 SLOAD DUP2 PUSH1 0xFF MUL NOT AND SWAP1 DUP4 PUSH1 0xFF AND MUL OR SWAP1 SSTORE POP CALLVALUE DUP1 ISZERO PUSH2 0xB3 JUMPI PUSH0 DUP1 REVERT JUMPDEST POP PUSH1 0x40 MLOAD PUSH2 0xEBB CODESIZE SUB DUP1 PUSH2 0xEBB DUP4 CODECOPY DUP2 DUP2 ADD PUSH1 0x40 MSTORE DUP2 ADD SWAP1 PUSH2 0xD5 SWAP2 SWAP1 PUSH2 0x485 JUMP JUMPDEST PUSH1 0x2 PUSH0 SWAP1 SLOAD SWAP1 PUSH2 0x100 EXP SWAP1 DIV PUSH1 0xFF AND PUSH1 0xFF AND PUSH1 0xA PUSH2 0xF3 SWAP2 SWAP1 PUSH2 0x60C JUMP JUMPDEST DUP2 PUSH2 0xFE SWAP2 SWAP1 PUSH2 0x656 JUMP JUMPDEST PUSH1 0x3 DUP2 SWAP1 SSTORE POP PUSH1 0x3 SLOAD PUSH1 0x4 PUSH0 CALLER PUSH20 0xFFFFFFFFFFFFFFFFFFFFFFFFFFFFFFFFFFFFFFFF AND PUSH20 0xFFFFFFFFFFFFFFFFFFFFFFFFFFFFFFFFFFFFFFFF AND DUP2 MSTORE PUSH1 0x20 ADD SWAP1 DUP2 MSTORE PUSH1 0x20 ADD PUSH0 KECCAK256 DUP2 SWAP1 SSTORE POP POP PUSH2 0x697 JUMP JUMPDEST PUSH0 DUP2 MLOAD SWAP1 POP SWAP2 SWAP1 POP JUMP JUMPDEST PUSH32 0x4E487B7100000000000000000000000000000000000000000000000000000000 PUSH0 MSTORE PUSH1 0x41 PUSH1 0x4 MSTORE PUSH1 0x24 PUSH0 REVERT JUMPDEST PUSH32 0x4E487B7100000000000000000000000000000000000000000000000000000000 PUSH0 MSTORE PUSH1 0x22 PUSH1 0x4 MSTORE PUSH1 0x24 PUSH0 REVERT JUMPDEST PUSH0 PUSH1 0x2 DUP3 DIV SWAP1 POP PUSH1 0x1 DUP3 AND DUP1 PUSH2 0x1C9 JUMPI PUSH1 0x7F DUP3 AND SWAP2 POP JUMPDEST PUSH1 0x20 DUP3 LT DUP2 SUB PUSH2 0x1DC JUMPI PUSH2 0x1DB PUSH2 0x185 JUMP JUMPDEST JUMPDEST POP SWAP2 SWAP1 POP JUMP JUMPDEST PUSH0 DUP2 SWAP1 POP DUP2 PUSH0 MSTORE PUSH1 0x20 PUSH0 KECCAK256 SWAP1 POP SWAP2 SWAP1 POP JUMP JUMPDEST PUSH0 PUSH1 0x20 PUSH1 0x1F DUP4 ADD DIV SWAP1 POP SWAP2 SWAP1 POP JUMP JUMPDEST PUSH0 DUP3 DUP3 SHL SWAP1 POP SWAP3 SWAP2 POP POP JUMP JUMPDEST PUSH0 PUSH1 0x8 DUP4 MUL PUSH2 0x23E PUSH32 0xFFFFFFFFFFFFFFFFFFFFFFFFFFFFFFFFFFFFFFFFFFFFFFFFFFFFFFFFFFFFFFFF DUP3 PUSH2 0x203 JUMP JUMPDEST PUSH2 0x248 DUP7 DUP4 PUSH2 0x203 JUMP JUMPDEST SWAP6 POP DUP1 NOT DUP5 AND SWAP4 POP DUP1 DUP7 AND DUP5 OR SWAP3 POP POP POP SWAP4 SWAP3 POP POP POP JUMP JUMPDEST PUSH0 DUP2 SWAP1 POP SWAP2 SWAP1 POP JUMP JUMPDEST PUSH0 DUP2 SWAP1 POP SWAP2 SWAP1 POP JUMP JUMPDEST PUSH0 PUSH2 0x28C PUSH2 0x287 PUSH2 0x282 DUP5 PUSH2 0x260 JUMP JUMPDEST PUSH2 0x269 JUMP JUMPDEST PUSH2 0x260 JUMP JUMPDEST SWAP1 POP SWAP2 SWAP1 POP JUMP JUMPDEST PUSH0 DUP2 SWAP1 POP SWAP2 SWAP1 POP JUMP JUMPDEST PUSH2 0x2A5 DUP4 PUSH2 0x272 JUMP JUMPDEST PUSH2 0x2B9 PUSH2 0x2B1 DUP3 PUSH2 0x293 JUMP JUMPDEST DUP5 DUP5 SLOAD PUSH2 0x20F JUMP JUMPDEST DUP3 SSTORE POP POP POP POP JUMP JUMPDEST PUSH0 SWAP1 JUMP JUMPDEST PUSH2 0x2CD PUSH2 0x2C1 JUMP JUMPDEST PUSH2 0x2D8 DUP2 DUP5 DUP5 PUSH2 0x29C JUMP JUMPDEST POP POP POP JUMP JUMPDEST JUMPDEST DUP2 DUP2 LT ISZERO PUSH2 0x2FB JUMPI PUSH2 0x2F0 PUSH0 DUP3 PUSH2 0x2C5 JUMP JUMPDEST PUSH1 0x1 DUP2 ADD SWAP1 POP PUSH2 0x2DE JUMP JUMPDEST POP POP JUMP JUMPDEST PUSH1 0x1F DUP3 GT ISZERO PUSH2 0x340 JUMPI PUSH2 0x311 DUP2 PUSH2 0x1E2 JUMP JUMPDEST PUSH2 0x31A DUP5 PUSH2 0x1F4 JUMP JUMPDEST DUP2 ADD PUSH1 0x20 DUP6 LT ISZERO PUSH2 0x329 JUMPI DUP2 SWAP1 POP JUMPDEST PUSH2 0x33D PUSH2 0x335 DUP6 PUSH2 0x1F4 JUMP JUMPDEST DUP4 ADD DUP3 PUSH2 0x2DD JUMP JUMPDEST POP POP JUMPDEST POP POP POP JUMP JUMPDEST PUSH0 DUP3 DUP3 SHR SWAP1 POP SWAP3 SWAP2 POP POP JUMP JUMPDEST PUSH0 PUSH2 0x360 PUSH0 NOT DUP5 PUSH1 0x8 MUL PUSH2 0x345 JUMP JUMPDEST NOT DUP1 DUP4 AND SWAP2 POP POP SWAP3 SWAP2 POP POP JUMP JUMPDEST PUSH0 PUSH2 0x378 DUP4 DUP4 PUSH2 0x351 JUMP JUMPDEST SWAP2 POP DUP3 PUSH1 0x2 MUL DUP3 OR SWAP1 POP SWAP3 SWAP2 POP POP JUMP JUMPDEST PUSH2 0x391 DUP3 PUSH2 0x14E JUMP JUMPDEST PUSH8 0xFFFFFFFFFFFFFFFF DUP2 GT ISZERO PUSH2 0x3AA JUMPI PUSH2 0x3A9 PUSH2 0x158 JUMP JUMPDEST JUMPDEST PUSH2 0x3B4 DUP3 SLOAD PUSH2 0x1B2 JUMP JUMPDEST PUSH2 0x3BF DUP3 DUP3 DUP6 PUSH2 0x2FF JUMP JUMPDEST PUSH0 PUSH1 0x20 SWAP1 POP PUSH1 0x1F DUP4 GT PUSH1 0x1 DUP2 EQ PUSH2 0x3F0 JUMPI PUSH0 DUP5 ISZERO PUSH2 0x3DE JUMPI DUP3 DUP8 ADD MLOAD SWAP1 POP JUMPDEST PUSH2 0x3E8 DUP6 DUP3 PUSH2 0x36D JUMP JUMPDEST DUP7 SSTORE POP PUSH2 0x44F JUMP JUMPDEST PUSH1 0x1F NOT DUP5 AND PUSH2 0x3FE DUP7 PUSH2 0x1E2 JUMP JUMPDEST PUSH0 JUMPDEST DUP3 DUP2 LT ISZERO PUSH2 0x425 JUMPI DUP5 DUP10 ADD MLOAD DUP3 SSTORE PUSH1 0x1 DUP3 ADD SWAP2 POP PUSH1 0x20 DUP6 ADD SWAP5 POP PUSH1 0x20 DUP2 ADD SWAP1 POP PUSH2 0x400 JUMP JUMPDEST DUP7 DUP4 LT ISZERO PUSH2 0x442 JUMPI DUP5 DUP10 ADD MLOAD PUSH2 0x43E PUSH1 0x1F DUP10 AND DUP3 PUSH2 0x351 JUMP JUMPDEST DUP4 SSTORE POP JUMPDEST PUSH1 0x1 PUSH1 0x2 DUP9 MUL ADD DUP9 SSTORE POP POP POP JUMPDEST POP POP POP POP POP POP JUMP JUMPDEST PUSH0 DUP1 REVERT JUMPDEST PUSH2 0x464 DUP2 PUSH2 0x260 JUMP JUMPDEST DUP2 EQ PUSH2 0x46E JUMPI PUSH0 DUP1 REVERT JUMPDEST POP JUMP JUMPDEST PUSH0 DUP2 MLOAD SWAP1 POP PUSH2 0x47F DUP2 PUSH2 0x45B JUMP JUMPDEST SWAP3 SWAP2 POP POP JUMP JUMPDEST PUSH0 PUSH1 0x20 DUP3 DUP5 SUB SLT ISZERO PUSH2 0x49A JUMPI PUSH2 0x499 PUSH2 0x457 JUMP JUMPDEST JUMPDEST PUSH0 PUSH2 0x4A7 DUP5 DUP3 DUP6 ADD PUSH2 0x471 JUMP JUMPDEST SWAP2 POP POP SWAP3 SWAP2 POP POP JUMP JUMPDEST PUSH32 0x4E487B7100000000000000000000000000000000000000000000000000000000 PUSH0 MSTORE PUSH1 0x11 PUSH1 0x4 MSTORE PUSH1 0x24 PUSH0 REVERT JUMPDEST PUSH0 DUP2 PUSH1 0x1 SHR SWAP1 POP SWAP2 SWAP1 POP JUMP JUMPDEST PUSH0 DUP1 DUP3 SWAP2 POP DUP4 SWAP1 POP JUMPDEST PUSH1 0x1 DUP6 GT ISZERO PUSH2 0x532 JUMPI DUP1 DUP7 DIV DUP2 GT ISZERO PUSH2 0x50E JUMPI PUSH2 0x50D PUSH2 0x4B0 JUMP JUMPDEST JUMPDEST PUSH1 0x1 DUP6 AND ISZERO PUSH2 0x51D JUMPI DUP1 DUP3 MUL SWAP2 POP JUMPDEST DUP1 DUP2 MUL SWAP1 POP PUSH2 0x52B DUP6 PUSH2 0x4DD JUMP JUMPDEST SWAP5 POP PUSH2 0x4F2 JUMP JUMPDEST SWAP5 POP SWAP5 SWAP3 POP POP POP JUMP JUMPDEST PUSH0 DUP3 PUSH2 0x54A JUMPI PUSH1 0x1 SWAP1 POP PUSH2 0x605 JUMP JUMPDEST DUP2 PUSH2 0x557 JUMPI PUSH0 SWAP1 POP PUSH2 0x605 JUMP JUMPDEST DUP2 PUSH1 0x1 DUP2 EQ PUSH2 0x56D JUMPI PUSH1 0x2 DUP2 EQ PUSH2 0x577 JUMPI PUSH2 0x5A6 JUMP JUMPDEST PUSH1 0x1 SWAP2 POP POP PUSH2 0x605 JUMP JUMPDEST PUSH1 0xFF DUP5 GT ISZERO PUSH2 0x589 JUMPI PUSH2 0x588 PUSH2 0x4B0 JUMP JUMPDEST JUMPDEST DUP4 PUSH1 0x2 EXP SWAP2 POP DUP5 DUP3 GT ISZERO PUSH2 0x5A0 JUMPI PUSH2 0x59F PUSH2 0x4B0 JUMP JUMPDEST JUMPDEST POP PUSH2 0x605 JUMP JUMPDEST POP PUSH1 0x20 DUP4 LT PUSH2 0x133 DUP4 LT AND PUSH1 0x4E DUP5 LT PUSH1 0xB DUP5 LT AND OR ISZERO PUSH2 0x5DB JUMPI DUP3 DUP3 EXP SWAP1 POP DUP4 DUP2 GT ISZERO PUSH2 0x5D6 JUMPI PUSH2 0x5D5 PUSH2 0x4B0 JUMP JUMPDEST JUMPDEST PUSH2 0x605 JUMP JUMPDEST PUSH2 0x5E8 DUP5 DUP5 DUP5 PUSH1 0x1 PUSH2 0x4E9 JUMP JUMPDEST SWAP3 POP SWAP1 POP DUP2 DUP5 DIV DUP2 GT ISZERO PUSH2 0x5FF JUMPI PUSH2 0x5FE PUSH2 0x4B0 JUMP JUMPDEST JUMPDEST DUP2 DUP2 MUL SWAP1 POP JUMPDEST SWAP4 SWAP3 POP POP POP JUMP JUMPDEST PUSH0 PUSH2 0x616 DUP3 PUSH2 0x260 JUMP JUMPDEST SWAP2 POP PUSH2 0x621 DUP4 PUSH2 0x260 JUMP JUMPDEST SWAP3 POP PUSH2 0x64E PUSH32 0xFFFFFFFFFFFFFFFFFFFFFFFFFFFFFFFFFFFFFFFFFFFFFFFFFFFFFFFFFFFFFFFF DUP5 DUP5 PUSH2 0x53B JUMP JUMPDEST SWAP1 POP SWAP3 SWAP2 POP POP JUMP JUMPDEST PUSH0 PUSH2 0x660 DUP3 PUSH2 0x260 JUMP JUMPDEST SWAP2 POP PUSH2 0x66B DUP4 PUSH2 0x260 JUMP JUMPDEST SWAP3 POP DUP3 DUP3 MUL PUSH2 0x679 DUP2 PUSH2 0x260 JUMP JUMPDEST SWAP2 POP DUP3 DUP3 DIV DUP5 EQ DUP4 ISZERO OR PUSH2 0x690 JUMPI PUSH2 0x68F PUSH2 0x4B0 JUMP JUMPDEST JUMPDEST POP SWAP3 SWAP2 POP POP JUMP JUMPDEST PUSH2 0x817 DUP1 PUSH2 0x6A4 PUSH0 CODECOPY PUSH0 RETURN INVALID PUSH1 0x80 PUSH1 0x40 MSTORE CALLVALUE DUP1 ISZERO PUSH2 0xF JUMPI PUSH0 DUP1 REVERT JUMPDEST POP PUSH1 0x4 CALLDATASIZE LT PUSH2 0x60 JUMPI PUSH0 CALLDATALOAD PUSH1 0xE0 SHR DUP1 PUSH4 0x6FDDE03 EQ PUSH2 0x64 JUMPI DUP1 PUSH4 0x18160DDD EQ PUSH2 0x82 JUMPI DUP1 PUSH4 0x23B872DD EQ PUSH2 0xA0 JUMPI DUP1 PUSH4 0x313CE567 EQ PUSH2 0xD0 JUMPI DUP1 PUSH4 0x75247A58 EQ PUSH2 0xEE JUMPI DUP1 PUSH4 0x95D89B41 EQ PUSH2 0x11E JUMPI JUMPDEST PUSH0 DUP1 REVERT JUMPDEST PUSH2 0x6C PUSH2 0x13C JUMP JUMPDEST PUSH1 0x40 MLOAD PUSH2 0x79 SWAP2 SWAP1 PUSH2 0x556 JUMP JUMPDEST PUSH1 0x40 MLOAD DUP1 SWAP2 SUB SWAP1 RETURN JUMPDEST PUSH2 0x8A PUSH2 0x1CB JUMP JUMPDEST PUSH1 0x40 MLOAD PUSH2 0x97 SWAP2 SWAP1 PUSH2 0x58E JUMP JUMPDEST PUSH1 0x40 MLOAD DUP1 SWAP2 SUB SWAP1 RETURN JUMPDEST PUSH2 0xBA PUSH1 0x4 DUP1 CALLDATASIZE SUB DUP2 ADD SWAP1 PUSH2 0xB5 SWAP2 SWAP1 PUSH2 0x62F JUMP JUMPDEST PUSH2 0x1D1 JUMP JUMPDEST PUSH1 0x40 MLOAD PUSH2 0xC7 SWAP2 SWAP1 PUSH2 0x699 JUMP JUMPDEST PUSH1 0x40 MLOAD DUP1 SWAP2 SUB SWAP1 RETURN JUMPDEST PUSH2 0xD8 PUSH2 0x354 JUMP JUMPDEST PUSH1 0x40 MLOAD PUSH2 0xE5 SWAP2 SWAP1 PUSH2 0x6CD JUMP JUMPDEST PUSH1 0x40 MLOAD DUP1 SWAP2 SUB SWAP1 RETURN JUMPDEST PUSH2 0x108 PUSH1 0x4 DUP1 CALLDATASIZE SUB DUP2 ADD SWAP1 PUSH2 0x103 SWAP2 SWAP1 PUSH2 0x6E6 JUMP JUMPDEST PUSH2 0x369 JUMP JUMPDEST PUSH1 0x40 MLOAD PUSH2 0x115 SWAP2 SWAP1 PUSH2 0x699 JUMP JUMPDEST PUSH1 0x40 MLOAD DUP1 SWAP2 SUB SWAP1 RETURN JUMPDEST PUSH2 0x126 PUSH2 0x456 JUMP JUMPDEST PUSH1 0x40 MLOAD PUSH2 0x133 SWAP2 SWAP1 PUSH2 0x556 JUMP JUMPDEST PUSH1 0x40 MLOAD DUP1 SWAP2 SUB SWAP1 RETURN JUMPDEST PUSH1 0x60 PUSH0 DUP1 SLOAD PUSH2 0x14A SWAP1 PUSH2 0x751 JUMP JUMPDEST DUP1 PUSH1 0x1F ADD PUSH1 0x20 DUP1 SWAP2 DIV MUL PUSH1 0x20 ADD PUSH1 0x40 MLOAD SWAP1 DUP2 ADD PUSH1 0x40 MSTORE DUP1 SWAP3 SWAP2 SWAP1 DUP2 DUP2 MSTORE PUSH1 0x20 ADD DUP3 DUP1 SLOAD PUSH2 0x176 SWAP1 PUSH2 0x751 JUMP JUMPDEST DUP1 ISZERO PUSH2 0x1C1 JUMPI DUP1 PUSH1 0x1F LT PUSH2 0x198 JUMPI PUSH2 0x100 DUP1 DUP4 SLOAD DIV MUL DUP4 MSTORE SWAP2 PUSH1 0x20 ADD SWAP2 PUSH2 0x1C1 JUMP JUMPDEST DUP3 ADD SWAP2 SWAP1 PUSH0 MSTORE PUSH1 0x20 PUSH0 KECCAK256 SWAP1 JUMPDEST DUP2 SLOAD DUP2 MSTORE SWAP1 PUSH1 0x1 ADD SWAP1 PUSH1 0x20 ADD DUP1 DUP4 GT PUSH2 0x1A4 JUMPI DUP3 SWAP1 SUB PUSH1 0x1F AND DUP3 ADD SWAP2 JUMPDEST POP POP POP POP POP SWAP1 POP SWAP1 JUMP JUMPDEST PUSH1 0x3 SLOAD DUP2 JUMP JUMPDEST PUSH0 PUSH1 0x5 PUSH0 DUP6 PUSH20 0xFFFFFFFFFFFFFFFFFFFFFFFFFFFFFFFFFFFFFFFF AND PUSH20 0xFFFFFFFFFFFFFFFFFFFFFFFFFFFFFFFFFFFFFFFF AND DUP2 MSTORE PUSH1 0x20 ADD SWAP1 DUP2 MSTORE PUSH1 0x20 ADD PUSH0 KECCAK256 PUSH0 CALLER PUSH20 0xFFFFFFFFFFFFFFFFFFFFFFFFFFFFFFFFFFFFFFFF AND PUSH20 0xFFFFFFFFFFFFFFFFFFFFFFFFFFFFFFFFFFFFFFFF AND DUP2 MSTORE PUSH1 0x20 ADD SWAP1 DUP2 MSTORE PUSH1 0x20 ADD PUSH0 KECCAK256 SLOAD DUP3 GT ISZERO PUSH2 0x256 JUMPI PUSH0 DUP1 REVERT JUMPDEST DUP2 PUSH1 0x5 PUSH0 DUP7 PUSH20 0xFFFFFFFFFFFFFFFFFFFFFFFFFFFFFFFFFFFFFFFF AND PUSH20 0xFFFFFFFFFFFFFFFFFFFFFFFFFFFFFFFFFFFFFFFF AND DUP2 MSTORE PUSH1 0x20 ADD SWAP1 DUP2 MSTORE PUSH1 0x20 ADD PUSH0 KECCAK256 PUSH0 CALLER PUSH20 0xFFFFFFFFFFFFFFFFFFFFFFFFFFFFFFFFFFFFFFFF AND PUSH20 0xFFFFFFFFFFFFFFFFFFFFFFFFFFFFFFFFFFFFFFFF AND DUP2 MSTORE PUSH1 0x20 ADD SWAP1 DUP2 MSTORE PUSH1 0x20 ADD PUSH0 KECCAK256 PUSH0 DUP3 DUP3 SLOAD PUSH2 0x2DD SWAP2 SWAP1 PUSH2 0x7AE JUMP JUMPDEST SWAP3 POP POP DUP2 SWAP1 SSTORE POP DUP3 PUSH20 0xFFFFFFFFFFFFFFFFFFFFFFFFFFFFFFFFFFFFFFFF AND DUP5 PUSH20 0xFFFFFFFFFFFFFFFFFFFFFFFFFFFFFFFFFFFFFFFF AND PUSH32 0xBEABACC8FFEDAC16E9A60ACDB2CA743D80C2EBB44977A93FA8E483C74D2B35A8 DUP5 PUSH1 0x40 MLOAD PUSH2 0x341 SWAP2 SWAP1 PUSH2 0x58E JUMP JUMPDEST PUSH1 0x40 MLOAD DUP1 SWAP2 SUB SWAP1 LOG3 PUSH1 0x1 SWAP1 POP SWAP4 SWAP3 POP POP POP JUMP JUMPDEST PUSH0 PUSH1 0x2 PUSH0 SWAP1 SLOAD SWAP1 PUSH2 0x100 EXP SWAP1 DIV PUSH1 0xFF AND SWAP1 POP SWAP1 JUMP JUMPDEST PUSH0 DUP2 PUSH1 0x5 PUSH0 CALLER PUSH20 0xFFFFFFFFFFFFFFFFFFFFFFFFFFFFFFFFFFFFFFFF AND PUSH20 0xFFFFFFFFFFFFFFFFFFFFFFFFFFFFFFFFFFFFFFFF AND DUP2 MSTORE PUSH1 0x20 ADD SWAP1 DUP2 MSTORE PUSH1 0x20 ADD PUSH0 KECCAK256 PUSH0 DUP6 PUSH20 0xFFFFFFFFFFFFFFFFFFFFFFFFFFFFFFFFFFFFFFFF AND PUSH20 0xFFFFFFFFFFFFFFFFFFFFFFFFFFFFFFFFFFFFFFFF AND DUP2 MSTORE PUSH1 0x20 ADD SWAP1 DUP2 MSTORE PUSH1 0x20 ADD PUSH0 KECCAK256 DUP2 SWAP1 SSTORE POP DUP3 PUSH20 0xFFFFFFFFFFFFFFFFFFFFFFFFFFFFFFFFFFFFFFFF AND CALLER PUSH20 0xFFFFFFFFFFFFFFFFFFFFFFFFFFFFFFFFFFFFFFFF AND PUSH32 0x8C5BE1E5EBEC7D5BD14F71427D1E84F3DD0314C0F7B2291E5B200AC8C7C3B925 DUP5 PUSH1 0x40 MLOAD PUSH2 0x444 SWAP2 SWAP1 PUSH2 0x58E JUMP JUMPDEST PUSH1 0x40 MLOAD DUP1 SWAP2 SUB SWAP1 LOG3 PUSH1 0x1 SWAP1 POP SWAP3 SWAP2 POP POP JUMP JUMPDEST PUSH1 0x60 PUSH1 0x1 DUP1 SLOAD PUSH2 0x465 SWAP1 PUSH2 0x751 JUMP JUMPDEST DUP1 PUSH1 0x1F ADD PUSH1 0x20 DUP1 SWAP2 DIV MUL PUSH1 0x20 ADD PUSH1 0x40 MLOAD SWAP1 DUP2 ADD PUSH1 0x40 MSTORE DUP1 SWAP3 SWAP2 SWAP1 DUP2 DUP2 MSTORE PUSH1 0x20 ADD DUP3 DUP1 SLOAD PUSH2 0x491 SWAP1 PUSH2 0x751 JUMP JUMPDEST DUP1 ISZERO PUSH2 0x4DC JUMPI DUP1 PUSH1 0x1F LT PUSH2 0x4B3 JUMPI PUSH2 0x100 DUP1 DUP4 SLOAD DIV MUL DUP4 MSTORE SWAP2 PUSH1 0x20 ADD SWAP2 PUSH2 0x4DC JUMP JUMPDEST DUP3 ADD SWAP2 SWAP1 PUSH0 MSTORE PUSH1 0x20 PUSH0 KECCAK256 SWAP1 JUMPDEST DUP2 SLOAD DUP2 MSTORE SWAP1 PUSH1 0x1 ADD SWAP1 PUSH1 0x20 ADD DUP1 DUP4 GT PUSH2 0x4BF JUMPI DUP3 SWAP1 SUB PUSH1 0x1F AND DUP3 ADD SWAP2 JUMPDEST POP POP POP POP POP SWAP1 POP SWAP1 JUMP JUMPDEST PUSH0 DUP2 MLOAD SWAP1 POP SWAP2 SWAP1 POP JUMP JUMPDEST PUSH0 DUP3 DUP3 MSTORE PUSH1 0x20 DUP3 ADD SWAP1 POP SWAP3 SWAP2 POP POP JUMP JUMPDEST DUP3 DUP2 DUP4 MCOPY PUSH0 DUP4 DUP4 ADD MSTORE POP POP POP JUMP JUMPDEST PUSH0 PUSH1 0x1F NOT PUSH1 0x1F DUP4 ADD AND SWAP1 POP SWAP2 SWAP1 POP JUMP JUMPDEST PUSH0 PUSH2 0x528 DUP3 PUSH2 0x4E6 JUMP JUMPDEST PUSH2 0x532 DUP2 DUP6 PUSH2 0x4F0 JUMP JUMPDEST SWAP4 POP PUSH2 0x542 DUP2 DUP6 PUSH1 0x20 DUP7 ADD PUSH2 0x500 JUMP JUMPDEST PUSH2 0x54B DUP2 PUSH2 0x50E JUMP JUMPDEST DUP5 ADD SWAP2 POP POP SWAP3 SWAP2 POP POP JUMP JUMPDEST PUSH0 PUSH1 0x20 DUP3 ADD SWAP1 POP DUP2 DUP2 SUB PUSH0 DUP4 ADD MSTORE PUSH2 0x56E DUP2 DUP5 PUSH2 0x51E JUMP JUMPDEST SWAP1 POP SWAP3 SWAP2 POP POP JUMP JUMPDEST PUSH0 DUP2 SWAP1 POP SWAP2 SWAP1 POP JUMP JUMPDEST PUSH2 0x588 DUP2 PUSH2 0x576 JUMP JUMPDEST DUP3 MSTORE POP POP JUMP JUMPDEST PUSH0 PUSH1 0x20 DUP3 ADD SWAP1 POP PUSH2 0x5A1 PUSH0 DUP4 ADD DUP5 PUSH2 0x57F JUMP JUMPDEST SWAP3 SWAP2 POP POP JUMP JUMPDEST PUSH0 DUP1 REVERT JUMPDEST PUSH0 PUSH20 0xFFFFFFFFFFFFFFFFFFFFFFFFFFFFFFFFFFFFFFFF DUP3 AND SWAP1 POP SWAP2 SWAP1 POP JUMP JUMPDEST PUSH0 PUSH2 0x5D4 DUP3 PUSH2 0x5AB JUMP JUMPDEST SWAP1 POP SWAP2 SWAP1 POP JUMP JUMPDEST PUSH2 0x5E4 DUP2 PUSH2 0x5CA JUMP JUMPDEST DUP2 EQ PUSH2 0x5EE JUMPI PUSH0 DUP1 REVERT JUMPDEST POP JUMP JUMPDEST PUSH0 DUP2 CALLDATALOAD SWAP1 POP PUSH2 0x5FF DUP2 PUSH2 0x5DB JUMP JUMPDEST SWAP3 SWAP2 POP POP JUMP JUMPDEST PUSH2 0x60E DUP2 PUSH2 0x576 JUMP JUMPDEST DUP2 EQ PUSH2 0x618 JUMPI PUSH0 DUP1 REVERT JUMPDEST POP JUMP JUMPDEST PUSH0 DUP2 CALLDATALOAD SWAP1 POP PUSH2 0x629 DUP2 PUSH2 0x605 JUMP JUMPDEST SWAP3 SWAP2 POP POP JUMP JUMPDEST PUSH0 DUP1 PUSH0 PUSH1 0x60 DUP5 DUP7 SUB SLT ISZERO PUSH2 0x646 JUMPI PUSH2 0x645 PUSH2 0x5A7 JUMP JUMPDEST JUMPDEST PUSH0 PUSH2 0x653 DUP7 DUP3 DUP8 ADD PUSH2 0x5F1 JUMP JUMPDEST SWAP4 POP POP PUSH1 0x20 PUSH2 0x664 DUP7 DUP3 DUP8 ADD PUSH2 0x5F1 JUMP JUMPDEST SWAP3 POP POP PUSH1 0x40 PUSH2 0x675 DUP7 DUP3 DUP8 ADD PUSH2 0x61B JUMP JUMPDEST SWAP2 POP POP SWAP3 POP SWAP3 POP SWAP3 JUMP JUMPDEST PUSH0 DUP2 ISZERO ISZERO SWAP1 POP SWAP2 SWAP1 POP JUMP JUMPDEST PUSH2 0x693 DUP2 PUSH2 0x67F JUMP JUMPDEST DUP3 MSTORE POP POP JUMP JUMPDEST PUSH0 PUSH1 0x20 DUP3 ADD SWAP1 POP PUSH2 0x6AC PUSH0 DUP4 ADD DUP5 PUSH2 0x68A JUMP JUMPDEST SWAP3 SWAP2 POP POP JUMP JUMPDEST PUSH0 PUSH1 0xFF DUP3 AND SWAP1 POP SWAP2 SWAP1 POP JUMP JUMPDEST PUSH2 0x6C7 DUP2 PUSH2 0x6B2 JUMP JUMPDEST DUP3 MSTORE POP POP JUMP JUMPDEST PUSH0 PUSH1 0x20 DUP3 ADD SWAP1 POP PUSH2 0x6E0 PUSH0 DUP4 ADD DUP5 PUSH2 0x6BE JUMP JUMPDEST SWAP3 SWAP2 POP POP JUMP JUMPDEST PUSH0 DUP1 PUSH1 0x40 DUP4 DUP6 SUB SLT ISZERO PUSH2 0x6FC JUMPI PUSH2 0x6FB PUSH2 0x5A7 JUMP JUMPDEST JUMPDEST PUSH0 PUSH2 0x709 DUP6 DUP3 DUP7 ADD PUSH2 0x5F1 JUMP JUMPDEST SWAP3 POP POP PUSH1 0x20 PUSH2 0x71A DUP6 DUP3 DUP7 ADD PUSH2 0x61B JUMP JUMPDEST SWAP2 POP POP SWAP3 POP SWAP3 SWAP1 POP JUMP JUMPDEST PUSH32 0x4E487B7100000000000000000000000000000000000000000000000000000000 PUSH0 MSTORE PUSH1 0x22 PUSH1 0x4 MSTORE PUSH1 0x24 PUSH0 REVERT JUMPDEST PUSH0 PUSH1 0x2 DUP3 DIV SWAP1 POP PUSH1 0x1 DUP3 AND DUP1 PUSH2 0x768 JUMPI PUSH1 0x7F DUP3 AND SWAP2 POP JUMPDEST PUSH1 0x20 DUP3 LT DUP2 SUB PUSH2 0x77B JUMPI PUSH2 0x77A PUSH2 0x724 JUMP JUMPDEST JUMPDEST POP SWAP2 SWAP1 POP JUMP JUMPDEST PUSH32 0x4E487B7100000000000000000000000000000000000000000000000000000000 PUSH0 MSTORE PUSH1 0x11 PUSH1 0x4 MSTORE PUSH1 0x24 PUSH0 REVERT JUMPDEST PUSH0 PUSH2 0x7B8 DUP3 PUSH2 0x576 JUMP JUMPDEST SWAP2 POP PUSH2 0x7C3 DUP4 PUSH2 0x576 JUMP JUMPDEST SWAP3 POP DUP3 DUP3 SUB SWAP1 POP DUP2 DUP2 GT ISZERO PUSH2 0x7DB JUMPI PUSH2 0x7DA PUSH2 0x781 JUMP JUMPDEST JUMPDEST SWAP3 SWAP2 POP POP JUMP INVALID LOG2 PUSH5 0x6970667358 0x22 SLT KECCAK256 BALANCE 0x4D XOR PUSH10 0xFE72F918F55A248858B9 BASEFEE LOG3 PUSH25 0x9D3A30126A3C5B231C6FFD640B9C0E64736F6C634300081A00 CALLER "
		},
		"gasEstimates": {
			"creation": {
				"codeDepositCost": "414200",
				"executionCost": "infinite",
				"totalCost": "infinite"
			},
			"external": {
				"approval(address,uint256)": "infinite",
				"decimals()": "2517",
				"name()": "infinite",
				"symbol()": "infinite",
				"totalSupply()": "2425",
				"transferFrom(address,address,uint256)": "infinite"
			},
			"internal": {
				"_transfer(address,uint256)": "infinite"
			}
		},
		"methodIdentifiers": {
			"approval(address,uint256)": "75247a58",
			"decimals()": "313ce567",
			"name()": "06fdde03",
			"symbol()": "95d89b41",
			"totalSupply()": "18160ddd",
			"transferFrom(address,address,uint256)": "23b872dd"
		}
	},
	"abi": [
		{
			"inputs": [
				{
					"internalType": "uint256",
					"name": "initialSupply",
					"type": "uint256"
				}
			],
			"stateMutability": "nonpayable",
			"type": "constructor"
		},
		{
			"anonymous": false,
			"inputs": [
				{
					"indexed": true,
					"internalType": "address",
					"name": "owner",
					"type": "address"
				},
				{
					"indexed": true,
					"internalType": "address",
					"name": "spender",
					"type": "address"
				},
				{
					"indexed": false,
					"internalType": "uint256",
					"name": "value",
					"type": "uint256"
				}
			],
			"name": "Approval",
			"type": "event"
		},
		{
			"anonymous": false,
			"inputs": [
				{
					"indexed": true,
					"internalType": "address",
					"name": "from",
					"type": "address"
				},
				{
					"indexed": true,
					"internalType": "address",
					"name": "to",
					"type": "address"
				},
				{
					"indexed": false,
					"internalType": "uint256",
					"name": "ammount",
					"type": "uint256"
				}
			],
			"name": "transfer",
			"type": "event"
		},
		{
			"inputs": [
				{
					"internalType": "address",
					"name": "_spender",
					"type": "address"
				},
				{
					"internalType": "uint256",
					"name": "_value",
					"type": "uint256"
				}
			],
			"name": "approval",
			"outputs": [
				{
					"internalType": "bool",
					"name": "sucessed",
					"type": "bool"
				}
			],
			"stateMutability": "nonpayable",
			"type": "function"
		},
		{
			"inputs": [],
			"name": "decimals",
			"outputs": [
				{
					"internalType": "uint8",
					"name": "",
					"type": "uint8"
				}
			],
			"stateMutability": "view",
			"type": "function"
		},
		{
			"inputs": [],
			"name": "name",
			"outputs": [
				{
					"internalType": "string",
					"name": "",
					"type": "string"
				}
			],
			"stateMutability": "view",
			"type": "function"
		},
		{
			"inputs": [],
			"name": "symbol",
			"outputs": [
				{
					"internalType": "string",
					"name": "",
					"type": "string"
				}
			],
			"stateMutability": "view",
			"type": "function"
		},
		{
			"inputs": [],
			"name": "totalSupply",
			"outputs": [
				{
					"internalType": "uint256",
					"name": "",
					"type": "uint256"
				}
			],
			"stateMutability": "view",
			"type": "function"
		},
		{
			"inputs": [
				{
					"internalType": "address",
					"name": "_from",
					"type": "address"
				},
				{
					"internalType": "address",
					"name": "_to",
					"type": "address"
				},
				{
					"internalType": "uint256",
					"name": "_value",
					"type": "uint256"
				}
			],
			"name": "transferFrom",
			"outputs": [
				{
					"internalType": "bool",
					"name": "sucessed",
					"type": "bool"
				}
			],
			"stateMutability": "nonpayable",
			"type": "function"
		}
	]
}