{
	"data": {
		"bytecode": {
			"linkReferences": {},
			"object": "6080604052348015600e575f80fd5b506108f98061001c5f395ff3fe608060405234801561000f575f80fd5b5060043610610060575f3560e01c8063092a1820146100645780636057361d146100955780636f760f41146100b1578063a3f3d08a146100cd578063cd552339146100fd578063fd736ec31461011b575b5f80fd5b61007e60048036038101906100799190610363565b610139565b60405161008c92919061040d565b60405180910390f35b6100af60048036038101906100aa9190610363565b6101ee565b005b6100cb60048036038101906100c69190610567565b6101f7565b005b6100e760048036038101906100e29190610363565b610277565b6040516100f491906105c1565b60405180910390f35b610105610312565b60405161011291906105e1565b60405180910390f35b610123610317565b60405161013091906105e1565b60405180910390f35b60028181548110610148575f80fd5b905f5260205f2090600202015f91509050805f01805461016790610627565b80601f016020809104026020016040519081016040528092919081815260200182805461019390610627565b80156101de5780601f106101b5576101008083540402835291602001916101de565b820191905f5260205f20905b8154815290600101906020018083116101c157829003601f168201915b5050505050908060010154905082565b805f8190555050565b6002604051806040016040528084815260200183815250908060018154018082558091505060019003905f5260205f2090600202015f909190919091505f820151815f01908161024791906107f4565b506020820151816001015550508160015f8381526020019081526020015f20908161027291906107f4565b505050565b6001602052805f5260405f205f91509050805461029390610627565b80601f01602080910402602001604051908101604052809291908181526020018280546102bf90610627565b801561030a5780601f106102e15761010080835404028352916020019161030a565b820191905f5260205f20905b8154815290600101906020018083116102ed57829003601f168201915b505050505081565b5f5481565b5f8054905090565b5f604051905090565b5f80fd5b5f80fd5b5f819050919050565b61034281610330565b811461034c575f80fd5b50565b5f8135905061035d81610339565b92915050565b5f6020828403121561037857610377610328565b5b5f6103858482850161034f565b91505092915050565b5f81519050919050565b5f82825260208201905092915050565b8281835e5f83830152505050565b5f601f19601f8301169050919050565b5f6103d08261038e565b6103da8185610398565b93506103ea8185602086016103a8565b6103f3816103b6565b840191505092915050565b61040781610330565b82525050565b5f6040820190508181035f83015261042581856103c6565b905061043460208301846103fe565b9392505050565b5f80fd5b5f80fd5b7f4e487b71000000000000000000000000000000000000000000000000000000005f52604160045260245ffd5b610479826103b6565b810181811067ffffffffffffffff8211171561049857610497610443565b5b80604052505050565b5f6104aa61031f565b90506104b68282610470565b919050565b5f67ffffffffffffffff8211156104d5576104d4610443565b5b6104de826103b6565b9050602081019050919050565b828183375f83830152505050565b5f61050b610506846104bb565b6104a1565b9050828152602081018484840111156105275761052661043f565b5b6105328482856104eb565b509392505050565b5f82601f83011261054e5761054d61043b565b5b813561055e8482602086016104f9565b91505092915050565b5f806040838503121561057d5761057c610328565b5b5f83013567ffffffffffffffff81111561059a5761059961032c565b5b6105a68582860161053a565b92505060206105b78582860161034f565b9150509250929050565b5f6020820190508181035f8301526105d981846103c6565b905092915050565b5f6020820190506105f45f8301846103fe565b92915050565b7f4e487b71000000000000000000000000000000000000000000000000000000005f52602260045260245ffd5b5f600282049050600182168061063e57607f821691505b602082108103610651576106506105fa565b5b50919050565b5f819050815f5260205f209050919050565b5f6020601f8301049050919050565b5f82821b905092915050565b5f600883026106b37fffffffffffffffffffffffffffffffffffffffffffffffffffffffffffffffff82610678565b6106bd8683610678565b95508019841693508086168417925050509392505050565b5f819050919050565b5f6106f86106f36106ee84610330565b6106d5565b610330565b9050919050565b5f819050919050565b610711836106de565b61072561071d826106ff565b848454610684565b825550505050565b5f90565b61073961072d565b610744818484610708565b505050565b5b818110156107675761075c5f82610731565b60018101905061074a565b5050565b601f8211156107ac5761077d81610657565b61078684610669565b81016020851015610795578190505b6107a96107a185610669565b830182610749565b50505b505050565b5f82821c905092915050565b5f6107cc5f19846008026107b1565b1980831691505092915050565b5f6107e483836107bd565b9150826002028217905092915050565b6107fd8261038e565b67ffffffffffffffff81111561081657610815610443565b5b6108208254610627565b61082b82828561076b565b5f60209050601f83116001811461085c575f841561084a578287015190505b61085485826107d9565b8655506108bb565b601f19841661086a86610657565b5f5b828110156108915784890151825560018201915060208501945060208101905061086c565b868310156108ae57848901516108aa601f8916826107bd565b8355505b6001600288020188555050505b50505050505056fea2646970667358221220e69c4b211da49eb570ed62928c82489a0ef0ede5635ebbff6ba22b3a1f28e9e664736f6c634300081a0033",
			"opcodes": "PUSH1 0x80 PUSH1 0x40 MSTORE CALLVALUE DUP1 ISZERO PUSH1 0xE JUMPI PUSH0 DUP1 REVERT JUMPDEST POP PUSH2 0x8F9 DUP1 PUSH2 0x1C PUSH0 CODECOPY PUSH0 RETURN INVALID PUSH1 0x80 PUSH1 0x40 MSTORE CALLVALUE DUP1 ISZERO PUSH2 0xF JUMPI PUSH0 DUP1 REVERT JUMPDEST POP PUSH1 0x4 CALLDATASIZE LT PUSH2 0x60 JUMPI PUSH0 CALLDATALOAD PUSH1 0xE0 SHR DUP1 PUSH4 0x92A1820 EQ PUSH2 0x64 JUMPI DUP1 PUSH4 0x6057361D EQ PUSH2 0x95 JUMPI DUP1 PUSH4 0x6F760F41 EQ PUSH2 0xB1 JUMPI DUP1 PUSH4 0xA3F3D08A EQ PUSH2 0xCD JUMPI DUP1 PUSH4 0xCD552339 EQ PUSH2 0xFD JUMPI DUP1 PUSH4 0xFD736EC3 EQ PUSH2 0x11B JUMPI JUMPDEST PUSH0 DUP1 REVERT JUMPDEST PUSH2 0x7E PUSH1 0x4 DUP1 CALLDATASIZE SUB DUP2 ADD SWAP1 PUSH2 0x79 SWAP2 SWAP1 PUSH2 0x363 JUMP JUMPDEST PUSH2 0x139 JUMP JUMPDEST PUSH1 0x40 MLOAD PUSH2 0x8C SWAP3 SWAP2 SWAP1 PUSH2 0x40D JUMP JUMPDEST PUSH1 0x40 MLOAD DUP1 SWAP2 SUB SWAP1 RETURN JUMPDEST PUSH2 0xAF PUSH1 0x4 DUP1 CALLDATASIZE SUB DUP2 ADD SWAP1 PUSH2 0xAA SWAP2 SWAP1 PUSH2 0x363 JUMP JUMPDEST PUSH2 0x1EE JUMP JUMPDEST STOP JUMPDEST PUSH2 0xCB PUSH1 0x4 DUP1 CALLDATASIZE SUB DUP2 ADD SWAP1 PUSH2 0xC6 SWAP2 SWAP1 PUSH2 0x567 JUMP JUMPDEST PUSH2 0x1F7 JUMP JUMPDEST STOP JUMPDEST PUSH2 0xE7 PUSH1 0x4 DUP1 CALLDATASIZE SUB DUP2 ADD SWAP1 PUSH2 0xE2 SWAP2 SWAP1 PUSH2 0x363 JUMP JUMPDEST PUSH2 0x277 JUMP JUMPDEST PUSH1 0x40 MLOAD PUSH2 0xF4 SWAP2 SWAP1 PUSH2 0x5C1 JUMP JUMPDEST PUSH1 0x40 MLOAD DUP1 SWAP2 SUB SWAP1 RETURN JUMPDEST PUSH2 0x105 PUSH2 0x312 JUMP JUMPDEST PUSH1 0x40 MLOAD PUSH2 0x112 SWAP2 SWAP1 PUSH2 0x5E1 JUMP JUMPDEST PUSH1 0x40 MLOAD DUP1 SWAP2 SUB SWAP1 RETURN JUMPDEST PUSH2 0x123 PUSH2 0x317 JUMP JUMPDEST PUSH1 0x40 MLOAD PUSH2 0x130 SWAP2 SWAP1 PUSH2 0x5E1 JUMP JUMPDEST PUSH1 0x40 MLOAD DUP1 SWAP2 SUB SWAP1 RETURN JUMPDEST PUSH1 0x2 DUP2 DUP2 SLOAD DUP2 LT PUSH2 0x148 JUMPI PUSH0 DUP1 REVERT JUMPDEST SWAP1 PUSH0 MSTORE PUSH1 0x20 PUSH0 KECCAK256 SWAP1 PUSH1 0x2 MUL ADD PUSH0 SWAP2 POP SWAP1 POP DUP1 PUSH0 ADD DUP1 SLOAD PUSH2 0x167 SWAP1 PUSH2 0x627 JUMP JUMPDEST DUP1 PUSH1 0x1F ADD PUSH1 0x20 DUP1 SWAP2 DIV MUL PUSH1 0x20 ADD PUSH1 0x40 MLOAD SWAP1 DUP2 ADD PUSH1 0x40 MSTORE DUP1 SWAP3 SWAP2 SWAP1 DUP2 DUP2 MSTORE PUSH1 0x20 ADD DUP3 DUP1 SLOAD PUSH2 0x193 SWAP1 PUSH2 0x627 JUMP JUMPDEST DUP1 ISZERO PUSH2 0x1DE JUMPI DUP1 PUSH1 0x1F LT PUSH2 0x1B5 JUMPI PUSH2 0x100 DUP1 DUP4 SLOAD DIV MUL DUP4 MSTORE SWAP2 PUSH1 0x20 ADD SWAP2 PUSH2 0x1DE JUMP JUMPDEST DUP3 ADD SWAP2 SWAP1 PUSH0 MSTORE PUSH1 0x20 PUSH0 KECCAK256 SWAP1 JUMPDEST DUP2 SLOAD DUP2 MSTORE SWAP1 PUSH1 0x1 ADD SWAP1 PUSH1 0x20 ADD DUP1 DUP4 GT PUSH2 0x1C1 JUMPI DUP3 SWAP1 SUB PUSH1 0x1F AND DUP3 ADD SWAP2 JUMPDEST POP POP POP POP POP SWAP1 DUP1 PUSH1 0x1 ADD SLOAD SWAP1 POP DUP3 JUMP JUMPDEST DUP1 PUSH0 DUP2 SWAP1 SSTORE POP POP JUMP JUMPDEST PUSH1 0x2 PUSH1 0x40 MLOAD DUP1 PUSH1 0x40 ADD PUSH1 0x40 MSTORE DUP1 DUP5 DUP2 MSTORE PUSH1 0x20 ADD DUP4 DUP2 MSTORE POP SWAP1 DUP1 PUSH1 0x1 DUP2 SLOAD ADD DUP1 DUP3 SSTORE DUP1 SWAP2 POP POP PUSH1 0x1 SWAP1 SUB SWAP1 PUSH0 MSTORE PUSH1 0x20 PUSH0 KECCAK256 SWAP1 PUSH1 0x2 MUL ADD PUSH0 SWAP1 SWAP2 SWAP1 SWAP2 SWAP1 SWAP2 POP PUSH0 DUP3 ADD MLOAD DUP2 PUSH0 ADD SWAP1 DUP2 PUSH2 0x247 SWAP2 SWAP1 PUSH2 0x7F4 JUMP JUMPDEST POP PUSH1 0x20 DUP3 ADD MLOAD DUP2 PUSH1 0x1 ADD SSTORE POP POP DUP2 PUSH1 0x1 PUSH0 DUP4 DUP2 MSTORE PUSH1 0x20 ADD SWAP1 DUP2 MSTORE PUSH1 0x20 ADD PUSH0 KECCAK256 SWAP1 DUP2 PUSH2 0x272 SWAP2 SWAP1 PUSH2 0x7F4 JUMP JUMPDEST POP POP POP JUMP JUMPDEST PUSH1 0x1 PUSH1 0x20 MSTORE DUP1 PUSH0 MSTORE PUSH1 0x40 PUSH0 KECCAK256 PUSH0 SWAP2 POP SWAP1 POP DUP1 SLOAD PUSH2 0x293 SWAP1 PUSH2 0x627 JUMP JUMPDEST DUP1 PUSH1 0x1F ADD PUSH1 0x20 DUP1 SWAP2 DIV MUL PUSH1 0x20 ADD PUSH1 0x40 MLOAD SWAP1 DUP2 ADD PUSH1 0x40 MSTORE DUP1 SWAP3 SWAP2 SWAP1 DUP2 DUP2 MSTORE PUSH1 0x20 ADD DUP3 DUP1 SLOAD PUSH2 0x2BF SWAP1 PUSH2 0x627 JUMP JUMPDEST DUP1 ISZERO PUSH2 0x30A JUMPI DUP1 PUSH1 0x1F LT PUSH2 0x2E1 JUMPI PUSH2 0x100 DUP1 DUP4 SLOAD DIV MUL DUP4 MSTORE SWAP2 PUSH1 0x20 ADD SWAP2 PUSH2 0x30A JUMP JUMPDEST DUP3 ADD SWAP2 SWAP1 PUSH0 MSTORE PUSH1 0x20 PUSH0 KECCAK256 SWAP1 JUMPDEST DUP2 SLOAD DUP2 MSTORE SWAP1 PUSH1 0x1 ADD SWAP1 PUSH1 0x20 ADD DUP1 DUP4 GT PUSH2 0x2ED JUMPI DUP3 SWAP1 SUB PUSH1 0x1F AND DUP3 ADD SWAP2 JUMPDEST POP POP POP POP POP DUP2 JUMP JUMPDEST PUSH0 SLOAD DUP2 JUMP JUMPDEST PUSH0 DUP1 SLOAD SWAP1 POP SWAP1 JUMP JUMPDEST PUSH0 PUSH1 0x40 MLOAD SWAP1 POP SWAP1 JUMP JUMPDEST PUSH0 DUP1 REVERT JUMPDEST PUSH0 DUP1 REVERT JUMPDEST PUSH0 DUP2 SWAP1 POP SWAP2 SWAP1 POP JUMP JUMPDEST PUSH2 0x342 DUP2 PUSH2 0x330 JUMP JUMPDEST DUP2 EQ PUSH2 0x34C JUMPI PUSH0 DUP1 REVERT JUMPDEST POP JUMP JUMPDEST PUSH0 DUP2 CALLDATALOAD SWAP1 POP PUSH2 0x35D DUP2 PUSH2 0x339 JUMP JUMPDEST SWAP3 SWAP2 POP POP JUMP JUMPDEST PUSH0 PUSH1 0x20 DUP3 DUP5 SUB SLT ISZERO PUSH2 0x378 JUMPI PUSH2 0x377 PUSH2 0x328 JUMP JUMPDEST JUMPDEST PUSH0 PUSH2 0x385 DUP5 DUP3 DUP6 ADD PUSH2 0x34F JUMP JUMPDEST SWAP2 POP POP SWAP3 SWAP2 POP POP JUMP JUMPDEST PUSH0 DUP2 MLOAD SWAP1 POP SWAP2 SWAP1 POP JUMP JUMPDEST PUSH0 DUP3 DUP3 MSTORE PUSH1 0x20 DUP3 ADD SWAP1 POP SWAP3 SWAP2 POP POP JUMP JUMPDEST DUP3 DUP2 DUP4 MCOPY PUSH0 DUP4 DUP4 ADD MSTORE POP POP POP JUMP JUMPDEST PUSH0 PUSH1 0x1F NOT PUSH1 0x1F DUP4 ADD AND SWAP1 POP SWAP2 SWAP1 POP JUMP JUMPDEST PUSH0 PUSH2 0x3D0 DUP3 PUSH2 0x38E JUMP JUMPDEST PUSH2 0x3DA DUP2 DUP6 PUSH2 0x398 JUMP JUMPDEST SWAP4 POP PUSH2 0x3EA DUP2 DUP6 PUSH1 0x20 DUP7 ADD PUSH2 0x3A8 JUMP JUMPDEST PUSH2 0x3F3 DUP2 PUSH2 0x3B6 JUMP JUMPDEST DUP5 ADD SWAP2 POP POP SWAP3 SWAP2 POP POP JUMP JUMPDEST PUSH2 0x407 DUP2 PUSH2 0x330 JUMP JUMPDEST DUP3 MSTORE POP POP JUMP JUMPDEST PUSH0 PUSH1 0x40 DUP3 ADD SWAP1 POP DUP2 DUP2 SUB PUSH0 DUP4 ADD MSTORE PUSH2 0x425 DUP2 DUP6 PUSH2 0x3C6 JUMP JUMPDEST SWAP1 POP PUSH2 0x434 PUSH1 0x20 DUP4 ADD DUP5 PUSH2 0x3FE JUMP JUMPDEST SWAP4 SWAP3 POP POP POP JUMP JUMPDEST PUSH0 DUP1 REVERT JUMPDEST PUSH0 DUP1 REVERT JUMPDEST PUSH32 0x4E487B7100000000000000000000000000000000000000000000000000000000 PUSH0 MSTORE PUSH1 0x41 PUSH1 0x4 MSTORE PUSH1 0x24 PUSH0 REVERT JUMPDEST PUSH2 0x479 DUP3 PUSH2 0x3B6 JUMP JUMPDEST DUP2 ADD DUP2 DUP2 LT PUSH8 0xFFFFFFFFFFFFFFFF DUP3 GT OR ISZERO PUSH2 0x498 JUMPI PUSH2 0x497 PUSH2 0x443 JUMP JUMPDEST JUMPDEST DUP1 PUSH1 0x40 MSTORE POP POP POP JUMP JUMPDEST PUSH0 PUSH2 0x4AA PUSH2 0x31F JUMP JUMPDEST SWAP1 POP PUSH2 0x4B6 DUP3 DUP3 PUSH2 0x470 JUMP JUMPDEST SWAP2 SWAP1 POP JUMP JUMPDEST PUSH0 PUSH8 0xFFFFFFFFFFFFFFFF DUP3 GT ISZERO PUSH2 0x4D5 JUMPI PUSH2 0x4D4 PUSH2 0x443 JUMP JUMPDEST JUMPDEST PUSH2 0x4DE DUP3 PUSH2 0x3B6 JUMP JUMPDEST SWAP1 POP PUSH1 0x20 DUP2 ADD SWAP1 POP SWAP2 SWAP1 POP JUMP JUMPDEST DUP3 DUP2 DUP4 CALLDATACOPY PUSH0 DUP4 DUP4 ADD MSTORE POP POP POP JUMP JUMPDEST PUSH0 PUSH2 0x50B PUSH2 0x506 DUP5 PUSH2 0x4BB JUMP JUMPDEST PUSH2 0x4A1 JUMP JUMPDEST SWAP1 POP DUP3 DUP2 MSTORE PUSH1 0x20 DUP2 ADD DUP5 DUP5 DUP5 ADD GT ISZERO PUSH2 0x527 JUMPI PUSH2 0x526 PUSH2 0x43F JUMP JUMPDEST JUMPDEST PUSH2 0x532 DUP5 DUP3 DUP6 PUSH2 0x4EB JUMP JUMPDEST POP SWAP4 SWAP3 POP POP POP JUMP JUMPDEST PUSH0 DUP3 PUSH1 0x1F DUP4 ADD SLT PUSH2 0x54E JUMPI PUSH2 0x54D PUSH2 0x43B JUMP JUMPDEST JUMPDEST DUP2 CALLDATALOAD PUSH2 0x55E DUP5 DUP3 PUSH1 0x20 DUP7 ADD PUSH2 0x4F9 JUMP JUMPDEST SWAP2 POP POP SWAP3 SWAP2 POP POP JUMP JUMPDEST PUSH0 DUP1 PUSH1 0x40 DUP4 DUP6 SUB SLT ISZERO PUSH2 0x57D JUMPI PUSH2 0x57C PUSH2 0x328 JUMP JUMPDEST JUMPDEST PUSH0 DUP4 ADD CALLDATALOAD PUSH8 0xFFFFFFFFFFFFFFFF DUP2 GT ISZERO PUSH2 0x59A JUMPI PUSH2 0x599 PUSH2 0x32C JUMP JUMPDEST JUMPDEST PUSH2 0x5A6 DUP6 DUP3 DUP7 ADD PUSH2 0x53A JUMP JUMPDEST SWAP3 POP POP PUSH1 0x20 PUSH2 0x5B7 DUP6 DUP3 DUP7 ADD PUSH2 0x34F JUMP JUMPDEST SWAP2 POP POP SWAP3 POP SWAP3 SWAP1 POP JUMP JUMPDEST PUSH0 PUSH1 0x20 DUP3 ADD SWAP1 POP DUP2 DUP2 SUB PUSH0 DUP4 ADD MSTORE PUSH2 0x5D9 DUP2 DUP5 PUSH2 0x3C6 JUMP JUMPDEST SWAP1 POP SWAP3 SWAP2 POP POP JUMP JUMPDEST PUSH0 PUSH1 0x20 DUP3 ADD SWAP1 POP PUSH2 0x5F4 PUSH0 DUP4 ADD DUP5 PUSH2 0x3FE JUMP JUMPDEST SWAP3 SWAP2 POP POP JUMP JUMPDEST PUSH32 0x4E487B7100000000000000000000000000000000000000000000000000000000 PUSH0 MSTORE PUSH1 0x22 PUSH1 0x4 MSTORE PUSH1 0x24 PUSH0 REVERT JUMPDEST PUSH0 PUSH1 0x2 DUP3 DIV SWAP1 POP PUSH1 0x1 DUP3 AND DUP1 PUSH2 0x63E JUMPI PUSH1 0x7F DUP3 AND SWAP2 POP JUMPDEST PUSH1 0x20 DUP3 LT DUP2 SUB PUSH2 0x651 JUMPI PUSH2 0x650 PUSH2 0x5FA JUMP JUMPDEST JUMPDEST POP SWAP2 SWAP1 POP JUMP JUMPDEST PUSH0 DUP2 SWAP1 POP DUP2 PUSH0 MSTORE PUSH1 0x20 PUSH0 KECCAK256 SWAP1 POP SWAP2 SWAP1 POP JUMP JUMPDEST PUSH0 PUSH1 0x20 PUSH1 0x1F DUP4 ADD DIV SWAP1 POP SWAP2 SWAP1 POP JUMP JUMPDEST PUSH0 DUP3 DUP3 SHL SWAP1 POP SWAP3 SWAP2 POP POP JUMP JUMPDEST PUSH0 PUSH1 0x8 DUP4 MUL PUSH2 0x6B3 PUSH32 0xFFFFFFFFFFFFFFFFFFFFFFFFFFFFFFFFFFFFFFFFFFFFFFFFFFFFFFFFFFFFFFFF DUP3 PUSH2 0x678 JUMP JUMPDEST PUSH2 0x6BD DUP7 DUP4 PUSH2 0x678 JUMP JUMPDEST SWAP6 POP DUP1 NOT DUP5 AND SWAP4 POP DUP1 DUP7 AND DUP5 OR SWAP3 POP POP POP SWAP4 SWAP3 POP POP POP JUMP JUMPDEST PUSH0 DUP2 SWAP1 POP SWAP2 SWAP1 POP JUMP JUMPDEST PUSH0 PUSH2 0x6F8 PUSH2 0x6F3 PUSH2 0x6EE DUP5 PUSH2 0x330 JUMP JUMPDEST PUSH2 0x6D5 JUMP JUMPDEST PUSH2 0x330 JUMP JUMPDEST SWAP1 POP SWAP2 SWAP1 POP JUMP JUMPDEST PUSH0 DUP2 SWAP1 POP SWAP2 SWAP1 POP JUMP JUMPDEST PUSH2 0x711 DUP4 PUSH2 0x6DE JUMP JUMPDEST PUSH2 0x725 PUSH2 0x71D DUP3 PUSH2 0x6FF JUMP JUMPDEST DUP5 DUP5 SLOAD PUSH2 0x684 JUMP JUMPDEST DUP3 SSTORE POP POP POP POP JUMP JUMPDEST PUSH0 SWAP1 JUMP JUMPDEST PUSH2 0x739 PUSH2 0x72D JUMP JUMPDEST PUSH2 0x744 DUP2 DUP5 DUP5 PUSH2 0x708 JUMP JUMPDEST POP POP POP JUMP JUMPDEST JUMPDEST DUP2 DUP2 LT ISZERO PUSH2 0x767 JUMPI PUSH2 0x75C PUSH0 DUP3 PUSH2 0x731 JUMP JUMPDEST PUSH1 0x1 DUP2 ADD SWAP1 POP PUSH2 0x74A JUMP JUMPDEST POP POP JUMP JUMPDEST PUSH1 0x1F DUP3 GT ISZERO PUSH2 0x7AC JUMPI PUSH2 0x77D DUP2 PUSH2 0x657 JUMP JUMPDEST PUSH2 0x786 DUP5 PUSH2 0x669 JUMP JUMPDEST DUP2 ADD PUSH1 0x20 DUP6 LT ISZERO PUSH2 0x795 JUMPI DUP2 SWAP1 POP JUMPDEST PUSH2 0x7A9 PUSH2 0x7A1 DUP6 PUSH2 0x669 JUMP JUMPDEST DUP4 ADD DUP3 PUSH2 0x749 JUMP JUMPDEST POP POP JUMPDEST POP POP POP JUMP JUMPDEST PUSH0 DUP3 DUP3 SHR SWAP1 POP SWAP3 SWAP2 POP POP JUMP JUMPDEST PUSH0 PUSH2 0x7CC PUSH0 NOT DUP5 PUSH1 0x8 MUL PUSH2 0x7B1 JUMP JUMPDEST NOT DUP1 DUP4 AND SWAP2 POP POP SWAP3 SWAP2 POP POP JUMP JUMPDEST PUSH0 PUSH2 0x7E4 DUP4 DUP4 PUSH2 0x7BD JUMP JUMPDEST SWAP2 POP DUP3 PUSH1 0x2 MUL DUP3 OR SWAP1 POP SWAP3 SWAP2 POP POP JUMP JUMPDEST PUSH2 0x7FD DUP3 PUSH2 0x38E JUMP JUMPDEST PUSH8 0xFFFFFFFFFFFFFFFF DUP2 GT ISZERO PUSH2 0x816 JUMPI PUSH2 0x815 PUSH2 0x443 JUMP JUMPDEST JUMPDEST PUSH2 0x820 DUP3 SLOAD PUSH2 0x627 JUMP JUMPDEST PUSH2 0x82B DUP3 DUP3 DUP6 PUSH2 0x76B JUMP JUMPDEST PUSH0 PUSH1 0x20 SWAP1 POP PUSH1 0x1F DUP4 GT PUSH1 0x1 DUP2 EQ PUSH2 0x85C JUMPI PUSH0 DUP5 ISZERO PUSH2 0x84A JUMPI DUP3 DUP8 ADD MLOAD SWAP1 POP JUMPDEST PUSH2 0x854 DUP6 DUP3 PUSH2 0x7D9 JUMP JUMPDEST DUP7 SSTORE POP PUSH2 0x8BB JUMP JUMPDEST PUSH1 0x1F NOT DUP5 AND PUSH2 0x86A DUP7 PUSH2 0x657 JUMP JUMPDEST PUSH0 JUMPDEST DUP3 DUP2 LT ISZERO PUSH2 0x891 JUMPI DUP5 DUP10 ADD MLOAD DUP3 SSTORE PUSH1 0x1 DUP3 ADD SWAP2 POP PUSH1 0x20 DUP6 ADD SWAP5 POP PUSH1 0x20 DUP2 ADD SWAP1 POP PUSH2 0x86C JUMP JUMPDEST DUP7 DUP4 LT ISZERO PUSH2 0x8AE JUMPI DUP5 DUP10 ADD MLOAD PUSH2 0x8AA PUSH1 0x1F DUP10 AND DUP3 PUSH2 0x7BD JUMP JUMPDEST DUP4 SSTORE POP JUMPDEST PUSH1 0x1 PUSH1 0x2 DUP9 MUL ADD DUP9 SSTORE POP POP POP JUMPDEST POP POP POP POP POP POP JUMP INVALID LOG2 PUSH5 0x6970667358 0x22 SLT KECCAK256 0xE6 SWAP13 0x4B 0x21 SAR LOG4 SWAP15 0xB5 PUSH17 0xED62928C82489A0EF0EDE5635EBBFF6BA2 0x2B GASPRICE 0x1F 0x28 0xE9 0xE6 PUSH5 0x736F6C6343 STOP ADDMOD BYTE STOP CALLER "
		},
		"gasEstimates": {
			"creation": {
				"codeDepositCost": "459400",
				"executionCost": "491",
				"totalCost": "459891"
			},
			"external": {
				"addPerson(string,uint256)": "infinite",
				"mappingovervalue(uint256)": "infinite",
				"myFavNum()": "2490",
				"person(uint256)": "infinite",
				"readOnly()": "2520",
				"store(uint256)": "22514"
			}
		},
		"methodIdentifiers": {
			"addPerson(string,uint256)": "6f760f41",
			"mappingovervalue(uint256)": "a3f3d08a",
			"myFavNum()": "cd552339",
			"person(uint256)": "092a1820",
			"readOnly()": "fd736ec3",
			"store(uint256)": "6057361d"
		}
	},
	"abi": [
		{
			"inputs": [
				{
					"internalType": "string",
					"name": "_name",
					"type": "string"
				},
				{
					"internalType": "uint256",
					"name": "_favouriteNum",
					"type": "uint256"
				}
			],
			"name": "addPerson",
			"outputs": [],
			"stateMutability": "nonpayable",
			"type": "function"
		},
		{
			"inputs": [
				{
					"internalType": "uint256",
					"name": "",
					"type": "uint256"
				}
			],
			"name": "mappingovervalue",
			"outputs": [
				{
					"internalType": "string",
					"name": "",
					"type": "string"
				}
			],
			"stateMutability": "view",
			"type": "function"
		},
		{
			"inputs": [],
			"name": "myFavNum",
			"outputs": [
				{
					"internalType": "uint256",
					"name": "",
					"type": "uint256"
				}
			],
			"stateMutability": "view",
			"type": "function"
		},
		{
			"inputs": [
				{
					"internalType": "uint256",
					"name": "",
					"type": "uint256"
				}
			],
			"name": "person",
			"outputs": [
				{
					"internalType": "string",
					"name": "name",
					"type": "string"
				},
				{
					"internalType": "uint256",
					"name": "favouriteNum",
					"type": "uint256"
				}
			],
			"stateMutability": "view",
			"type": "function"
		},
		{
			"inputs": [],
			"name": "readOnly",
			"outputs": [
				{
					"internalType": "uint256",
					"name": "",
					"type": "uint256"
				}
			],
			"stateMutability": "view",
			"type": "function"
		},
		{
			"inputs": [
				{
					"internalType": "uint256",
					"name": "_myfavNum",
					"type": "uint256"
				}
			],
			"name": "store",
			"outputs": [],
			"stateMutability": "nonpayable",
			"type": "function"
		}
	]
}